{
  "_format": "hh-sol-artifact-1",
  "contractName": "KLKGenesis",
  "sourceName": "contracts/klk.sol",
  "abi": [
    {
      "inputs": [],
      "stateMutability": "nonpayable",
      "type": "constructor"
    },
    {
      "inputs": [],
      "name": "ERC721EnumerableForbiddenBatchMint",
      "type": "error"
    },
    {
      "inputs": [
        {
          "internalType": "address",
          "name": "sender",
          "type": "address"
        },
        {
          "internalType": "uint256",
          "name": "tokenId",
          "type": "uint256"
        },
        {
          "internalType": "address",
          "name": "owner",
          "type": "address"
        }
      ],
      "name": "ERC721IncorrectOwner",
      "type": "error"
    },
    {
      "inputs": [
        {
          "internalType": "address",
          "name": "operator",
          "type": "address"
        },
        {
          "internalType": "uint256",
          "name": "tokenId",
          "type": "uint256"
        }
      ],
      "name": "ERC721InsufficientApproval",
      "type": "error"
    },
    {
      "inputs": [
        {
          "internalType": "address",
          "name": "approver",
          "type": "address"
        }
      ],
      "name": "ERC721InvalidApprover",
      "type": "error"
    },
    {
      "inputs": [
        {
          "internalType": "address",
          "name": "operator",
          "type": "address"
        }
      ],
      "name": "ERC721InvalidOperator",
      "type": "error"
    },
    {
      "inputs": [
        {
          "internalType": "address",
          "name": "owner",
          "type": "address"
        }
      ],
      "name": "ERC721InvalidOwner",
      "type": "error"
    },
    {
      "inputs": [
        {
          "internalType": "address",
          "name": "receiver",
          "type": "address"
        }
      ],
      "name": "ERC721InvalidReceiver",
      "type": "error"
    },
    {
      "inputs": [
        {
          "internalType": "address",
          "name": "sender",
          "type": "address"
        }
      ],
      "name": "ERC721InvalidSender",
      "type": "error"
    },
    {
      "inputs": [
        {
          "internalType": "uint256",
          "name": "tokenId",
          "type": "uint256"
        }
      ],
      "name": "ERC721NonexistentToken",
      "type": "error"
    },
    {
      "inputs": [
        {
          "internalType": "address",
          "name": "owner",
          "type": "address"
        },
        {
          "internalType": "uint256",
          "name": "index",
          "type": "uint256"
        }
      ],
      "name": "ERC721OutOfBoundsIndex",
      "type": "error"
    },
    {
      "inputs": [
        {
          "internalType": "address",
          "name": "owner",
          "type": "address"
        }
      ],
      "name": "OwnableInvalidOwner",
      "type": "error"
    },
    {
      "inputs": [
        {
          "internalType": "address",
          "name": "account",
          "type": "address"
        }
      ],
      "name": "OwnableUnauthorizedAccount",
      "type": "error"
    },
    {
      "anonymous": false,
      "inputs": [
        {
          "indexed": true,
          "internalType": "address",
          "name": "owner",
          "type": "address"
        },
        {
          "indexed": true,
          "internalType": "address",
          "name": "approved",
          "type": "address"
        },
        {
          "indexed": true,
          "internalType": "uint256",
          "name": "tokenId",
          "type": "uint256"
        }
      ],
      "name": "Approval",
      "type": "event"
    },
    {
      "anonymous": false,
      "inputs": [
        {
          "indexed": true,
          "internalType": "address",
          "name": "owner",
          "type": "address"
        },
        {
          "indexed": true,
          "internalType": "address",
          "name": "operator",
          "type": "address"
        },
        {
          "indexed": false,
          "internalType": "bool",
          "name": "approved",
          "type": "bool"
        }
      ],
      "name": "ApprovalForAll",
      "type": "event"
    },
    {
      "anonymous": false,
      "inputs": [
        {
          "indexed": true,
          "internalType": "address",
          "name": "previousOwner",
          "type": "address"
        },
        {
          "indexed": true,
          "internalType": "address",
          "name": "newOwner",
          "type": "address"
        }
      ],
      "name": "OwnershipTransferred",
      "type": "event"
    },
    {
      "anonymous": false,
      "inputs": [
        {
          "indexed": true,
          "internalType": "address",
          "name": "from",
          "type": "address"
        },
        {
          "indexed": true,
          "internalType": "address",
          "name": "to",
          "type": "address"
        },
        {
          "indexed": true,
          "internalType": "uint256",
          "name": "tokenId",
          "type": "uint256"
        }
      ],
      "name": "Transfer",
      "type": "event"
    },
    {
      "inputs": [
        {
          "internalType": "address",
          "name": "to",
          "type": "address"
        },
        {
          "internalType": "uint256",
          "name": "tokenId",
          "type": "uint256"
        }
      ],
      "name": "approve",
      "outputs": [],
      "stateMutability": "nonpayable",
      "type": "function"
    },
    {
      "inputs": [
        {
          "internalType": "address",
          "name": "owner",
          "type": "address"
        }
      ],
      "name": "balanceOf",
      "outputs": [
        {
          "internalType": "uint256",
          "name": "",
          "type": "uint256"
        }
      ],
      "stateMutability": "view",
      "type": "function"
    },
    {
      "inputs": [],
      "name": "baseUri",
      "outputs": [
        {
          "internalType": "string",
          "name": "",
          "type": "string"
        }
      ],
      "stateMutability": "view",
      "type": "function"
    },
    {
      "inputs": [
        {
          "internalType": "address",
          "name": "_to",
          "type": "address"
        }
      ],
      "name": "check",
      "outputs": [
        {
          "internalType": "uint256",
          "name": "",
          "type": "uint256"
        }
      ],
      "stateMutability": "view",
      "type": "function"
    },
    {
      "inputs": [],
      "name": "freeMint",
      "outputs": [],
      "stateMutability": "nonpayable",
      "type": "function"
    },
    {
      "inputs": [
        {
          "internalType": "uint256",
          "name": "tokenId",
          "type": "uint256"
        }
      ],
      "name": "getApproved",
      "outputs": [
        {
          "internalType": "address",
          "name": "",
          "type": "address"
        }
      ],
      "stateMutability": "view",
      "type": "function"
    },
    {
      "inputs": [
        {
          "internalType": "address",
          "name": "_to",
          "type": "address"
        }
      ],
      "name": "getEncodePacked",
      "outputs": [
        {
          "internalType": "bytes",
          "name": "",
          "type": "bytes"
        }
      ],
      "stateMutability": "pure",
      "type": "function"
    },
    {
      "inputs": [
        {
          "internalType": "address",
          "name": "_to",
          "type": "address"
        }
      ],
      "name": "getHash",
      "outputs": [
        {
          "internalType": "bytes32",
          "name": "",
          "type": "bytes32"
        }
      ],
      "stateMutability": "view",
      "type": "function"
    },
    {
      "inputs": [
        {
          "internalType": "bytes",
          "name": "_data",
          "type": "bytes"
        }
      ],
      "name": "getKeccak256",
      "outputs": [
        {
          "internalType": "bytes32",
          "name": "",
          "type": "bytes32"
        }
      ],
      "stateMutability": "pure",
      "type": "function"
    },
    {
      "inputs": [
        {
          "internalType": "address",
          "name": "owner",
          "type": "address"
        },
        {
          "internalType": "address",
          "name": "operator",
          "type": "address"
        }
      ],
      "name": "isApprovedForAll",
      "outputs": [
        {
          "internalType": "bool",
          "name": "",
          "type": "bool"
        }
      ],
      "stateMutability": "view",
      "type": "function"
    },
    {
      "inputs": [],
      "name": "maxPerUser",
      "outputs": [
        {
          "internalType": "uint256",
          "name": "",
          "type": "uint256"
        }
      ],
      "stateMutability": "view",
      "type": "function"
    },
    {
      "inputs": [],
      "name": "maxSupply",
      "outputs": [
        {
          "internalType": "uint256",
          "name": "",
          "type": "uint256"
        }
      ],
      "stateMutability": "view",
      "type": "function"
    },
    {
      "inputs": [],
      "name": "maxVerifySupply",
      "outputs": [
        {
          "internalType": "uint256",
          "name": "",
          "type": "uint256"
        }
      ],
      "stateMutability": "view",
      "type": "function"
    },
    {
      "inputs": [],
      "name": "merkleRoot",
      "outputs": [
        {
          "internalType": "bytes32",
          "name": "",
          "type": "bytes32"
        }
      ],
      "stateMutability": "view",
      "type": "function"
    },
    {
      "inputs": [
        {
          "internalType": "bytes32[]",
          "name": "proof",
          "type": "bytes32[]"
        }
      ],
      "name": "mint",
      "outputs": [],
      "stateMutability": "nonpayable",
      "type": "function"
    },
    {
      "inputs": [],
      "name": "mintEndTime",
      "outputs": [
        {
          "internalType": "uint256",
          "name": "",
          "type": "uint256"
        }
      ],
      "stateMutability": "view",
      "type": "function"
    },
    {
      "inputs": [],
      "name": "mintStartTime",
      "outputs": [
        {
          "internalType": "uint256",
          "name": "",
          "type": "uint256"
        }
      ],
      "stateMutability": "view",
      "type": "function"
    },
    {
      "inputs": [
        {
          "internalType": "address",
          "name": "",
          "type": "address"
        }
      ],
      "name": "mintedCount",
      "outputs": [
        {
          "internalType": "uint256",
          "name": "",
          "type": "uint256"
        }
      ],
      "stateMutability": "view",
      "type": "function"
    },
    {
      "inputs": [],
      "name": "name",
      "outputs": [
        {
          "internalType": "string",
          "name": "",
          "type": "string"
        }
      ],
      "stateMutability": "view",
      "type": "function"
    },
    {
      "inputs": [],
      "name": "owner",
      "outputs": [
        {
          "internalType": "address",
          "name": "",
          "type": "address"
        }
      ],
      "stateMutability": "view",
      "type": "function"
    },
    {
      "inputs": [
        {
          "internalType": "uint256",
          "name": "tokenId",
          "type": "uint256"
        }
      ],
      "name": "ownerOf",
      "outputs": [
        {
          "internalType": "address",
          "name": "",
          "type": "address"
        }
      ],
      "stateMutability": "view",
      "type": "function"
    },
    {
      "inputs": [],
      "name": "payAmount",
      "outputs": [
        {
          "internalType": "uint256",
          "name": "",
          "type": "uint256"
        }
      ],
      "stateMutability": "view",
      "type": "function"
    },
    {
      "inputs": [],
      "name": "payToken",
      "outputs": [
        {
          "internalType": "contract IIERC20",
          "name": "",
          "type": "address"
        }
      ],
      "stateMutability": "view",
      "type": "function"
    },
    {
      "inputs": [],
      "name": "paymentReceiver",
      "outputs": [
        {
          "internalType": "address",
          "name": "",
          "type": "address"
        }
      ],
      "stateMutability": "view",
      "type": "function"
    },
    {
      "inputs": [],
      "name": "renounceOwnership",
      "outputs": [],
      "stateMutability": "nonpayable",
      "type": "function"
    },
    {
      "inputs": [
        {
          "internalType": "address",
          "name": "from",
          "type": "address"
        },
        {
          "internalType": "address",
          "name": "to",
          "type": "address"
        },
        {
          "internalType": "uint256",
          "name": "tokenId",
          "type": "uint256"
        }
      ],
      "name": "safeTransferFrom",
      "outputs": [],
      "stateMutability": "nonpayable",
      "type": "function"
    },
    {
      "inputs": [
        {
          "internalType": "address",
          "name": "from",
          "type": "address"
        },
        {
          "internalType": "address",
          "name": "to",
          "type": "address"
        },
        {
          "internalType": "uint256",
          "name": "tokenId",
          "type": "uint256"
        },
        {
          "internalType": "bytes",
          "name": "data",
          "type": "bytes"
        }
      ],
      "name": "safeTransferFrom",
      "outputs": [],
      "stateMutability": "nonpayable",
      "type": "function"
    },
    {
      "inputs": [
        {
          "internalType": "uint256",
          "name": "_startTime",
          "type": "uint256"
        },
        {
          "internalType": "uint256",
          "name": "_endTime",
          "type": "uint256"
        },
        {
          "internalType": "uint256",
          "name": "_maxSupply",
          "type": "uint256"
        },
        {
          "internalType": "uint256",
          "name": "_maxPerUser",
          "type": "uint256"
        },
        {
          "internalType": "address",
          "name": "_paymentReceiver",
          "type": "address"
        },
        {
          "internalType": "address",
          "name": "_payToken",
          "type": "address"
        },
        {
          "internalType": "uint256",
          "name": "_payAmount",
          "type": "uint256"
        }
      ],
      "name": "set",
      "outputs": [],
      "stateMutability": "nonpayable",
      "type": "function"
    },
    {
      "inputs": [
        {
          "internalType": "address",
          "name": "operator",
          "type": "address"
        },
        {
          "internalType": "bool",
          "name": "approved",
          "type": "bool"
        }
      ],
      "name": "setApprovalForAll",
      "outputs": [],
      "stateMutability": "nonpayable",
      "type": "function"
    },
    {
      "inputs": [
        {
          "internalType": "string",
          "name": "_uri",
          "type": "string"
        }
      ],
      "name": "setBaseURI",
      "outputs": [],
      "stateMutability": "nonpayable",
      "type": "function"
    },
    {
      "inputs": [
        {
          "internalType": "bytes32",
          "name": "_root",
          "type": "bytes32"
        }
      ],
      "name": "setMerkleRoot",
      "outputs": [],
      "stateMutability": "nonpayable",
      "type": "function"
    },
    {
      "inputs": [
        {
          "internalType": "bytes4",
          "name": "interfaceId",
          "type": "bytes4"
        }
      ],
      "name": "supportsInterface",
      "outputs": [
        {
          "internalType": "bool",
          "name": "",
          "type": "bool"
        }
      ],
      "stateMutability": "view",
      "type": "function"
    },
    {
      "inputs": [],
      "name": "symbol",
      "outputs": [
        {
          "internalType": "string",
          "name": "",
          "type": "string"
        }
      ],
      "stateMutability": "view",
      "type": "function"
    },
    {
      "inputs": [
        {
          "internalType": "uint256",
          "name": "index",
          "type": "uint256"
        }
      ],
      "name": "tokenByIndex",
      "outputs": [
        {
          "internalType": "uint256",
          "name": "",
          "type": "uint256"
        }
      ],
      "stateMutability": "view",
      "type": "function"
    },
    {
      "inputs": [
        {
          "internalType": "address",
          "name": "owner",
          "type": "address"
        },
        {
          "internalType": "uint256",
          "name": "index",
          "type": "uint256"
        }
      ],
      "name": "tokenOfOwnerByIndex",
      "outputs": [
        {
          "internalType": "uint256",
          "name": "",
          "type": "uint256"
        }
      ],
      "stateMutability": "view",
      "type": "function"
    },
    {
      "inputs": [
        {
          "internalType": "uint256",
          "name": "tokenId",
          "type": "uint256"
        }
      ],
      "name": "tokenURI",
      "outputs": [
        {
          "internalType": "string",
          "name": "",
          "type": "string"
        }
      ],
      "stateMutability": "view",
      "type": "function"
    },
    {
      "inputs": [],
      "name": "totalSupply",
      "outputs": [
        {
          "internalType": "uint256",
          "name": "",
          "type": "uint256"
        }
      ],
      "stateMutability": "view",
      "type": "function"
    },
    {
      "inputs": [
        {
          "internalType": "address",
          "name": "from",
          "type": "address"
        },
        {
          "internalType": "address",
          "name": "to",
          "type": "address"
        },
        {
          "internalType": "uint256",
          "name": "tokenId",
          "type": "uint256"
        }
      ],
      "name": "transferFrom",
      "outputs": [],
      "stateMutability": "nonpayable",
      "type": "function"
    },
    {
      "inputs": [
        {
          "internalType": "address",
          "name": "newOwner",
          "type": "address"
        }
      ],
      "name": "transferOwnership",
      "outputs": [],
      "stateMutability": "nonpayable",
      "type": "function"
    },
    {
      "inputs": [
        {
          "internalType": "bytes32",
          "name": "_root",
          "type": "bytes32"
        },
        {
          "internalType": "address",
          "name": "_to",
          "type": "address"
        },
        {
          "internalType": "bytes32[]",
          "name": "proof",
          "type": "bytes32[]"
        }
      ],
      "name": "verify",
      "outputs": [
        {
          "internalType": "bool",
          "name": "",
          "type": "bool"
        }
      ],
      "stateMutability": "view",
      "type": "function"
    },
    {
      "inputs": [],
      "name": "verifySupply",
      "outputs": [
        {
          "internalType": "uint256",
          "name": "",
          "type": "uint256"
        }
      ],
      "stateMutability": "view",
      "type": "function"
    }
  ],
  "bytecode": "0x608060405260405180606001604052806027815260200162004b3760279139600c90816200002e9190620004c1565b506000600e55636a8a2eea600f55614f1a6010556000601155620186a060125560056013553480156200006057600080fd5b50336040518060400160405280600b81526020017f50616e646f7261546573740000000000000000000000000000000000000000008152506040518060400160405280600881526020017f50616e646f7261540000000000000000000000000000000000000000000000008152508160009081620000df9190620004c1565b508060019081620000f19190620004c1565b505050600073ffffffffffffffffffffffffffffffffffffffff168173ffffffffffffffffffffffffffffffffffffffff1603620001695760006040517f1e4fbdf7000000000000000000000000000000000000000000000000000000008152600401620001609190620005ed565b60405180910390fd5b6200017a816200018160201b60201c565b506200060a565b6000600a60009054906101000a900473ffffffffffffffffffffffffffffffffffffffff16905081600a60006101000a81548173ffffffffffffffffffffffffffffffffffffffff021916908373ffffffffffffffffffffffffffffffffffffffff1602179055508173ffffffffffffffffffffffffffffffffffffffff168173ffffffffffffffffffffffffffffffffffffffff167f8be0079c531659141344cd1fd0a4f28419497f9722a3daafe3b4186f6b6457e060405160405180910390a35050565b600081519050919050565b7f4e487b7100000000000000000000000000000000000000000000000000000000600052604160045260246000fd5b7f4e487b7100000000000000000000000000000000000000000000000000000000600052602260045260246000fd5b60006002820490506001821680620002c957607f821691505b602082108103620002df57620002de62000281565b5b50919050565b60008190508160005260206000209050919050565b60006020601f8301049050919050565b600082821b905092915050565b600060088302620003497fffffffffffffffffffffffffffffffffffffffffffffffffffffffffffffffff826200030a565b6200035586836200030a565b95508019841693508086168417925050509392505050565b6000819050919050565b6000819050919050565b6000620003a26200039c62000396846200036d565b62000377565b6200036d565b9050919050565b6000819050919050565b620003be8362000381565b620003d6620003cd82620003a9565b84845462000317565b825550505050565b600090565b620003ed620003de565b620003fa818484620003b3565b505050565b5b81811015620004225762000416600082620003e3565b60018101905062000400565b5050565b601f82111562000471576200043b81620002e5565b6200044684620002fa565b8101602085101562000456578190505b6200046e6200046585620002fa565b830182620003ff565b50505b505050565b600082821c905092915050565b6000620004966000198460080262000476565b1980831691505092915050565b6000620004b1838362000483565b9150826002028217905092915050565b620004cc8262000247565b67ffffffffffffffff811115620004e857620004e762000252565b5b620004f48254620002b0565b6200050182828562000426565b600060209050601f83116001811462000539576000841562000524578287015190505b620005308582620004a3565b865550620005a0565b601f1984166200054986620002e5565b60005b8281101562000573578489015182556001820191506020850194506020810190506200054c565b868310156200059357848901516200058f601f89168262000483565b8355505b6001600288020188555050505b505050505050565b600073ffffffffffffffffffffffffffffffffffffffff82169050919050565b6000620005d582620005a8565b9050919050565b620005e781620005c8565b82525050565b6000602082019050620006046000830184620005dc565b92915050565b61451d806200061a6000396000f3fe608060405234801561001057600080fd5b50600436106102535760003560e01c8063715018a611610146578063a22cb465116100c3578063c87b56dd11610087578063c87b56dd146106fe578063cb37f3b21461072e578063d5abeb011461074c578063e985e9c51461076a578063f2fde38b1461079a578063fddcb5ea146107b657610253565b8063a22cb4651461065c578063b77a147b14610678578063b88d4fde14610694578063c23697a8146106b0578063c8705544146106e057610253565b806393730bbe1161010a57806393730bbe146105a257806395d89b41146105d257806396336b30146105f05780639a99fcf31461060e5780639abc83201461063e57610253565b8063715018a614610522578063717a002b1461052c5780637cb647591461054a5780638da5cb5b14610566578063931e2e491461058457610253565b80632f745c59116101d45780635b70ea9f116101985780635b70ea9f1461047e5780636352211e1461048857806364395937146104b857806368394633146104d657806370a08231146104f257610253565b80632f745c59146103c85780633f438c0a146103f857806342842e0e146104165780634f6ccce71461043257806355f804b31461046257610253565b806318160ddd1161021b57806318160ddd146103105780631da0b8fc1461032e57806323b872dd1461035e57806323bcf83e1461037a5780632eb4a7ab146103aa57610253565b806301ffc9a71461025857806306d586bb1461028857806306fdde03146102a6578063081812fc146102c4578063095ea7b3146102f4575b600080fd5b610272600480360381019061026d9190612cfc565b6107e6565b60405161027f9190612d44565b60405180910390f35b610290610860565b60405161029d9190612d78565b60405180910390f35b6102ae610866565b6040516102bb9190612e23565b60405180910390f35b6102de60048036038101906102d99190612e71565b6108f8565b6040516102eb9190612edf565b60405180910390f35b61030e60048036038101906103099190612f26565b610914565b005b61031861092a565b6040516103259190612d78565b60405180910390f35b61034860048036038101906103439190612f66565b610937565b6040516103559190612fac565b60405180910390f35b61037860048036038101906103739190612fc7565b6109c6565b005b610394600480360381019061038f9190612f66565b610ac8565b6040516103a1919061306f565b60405180910390f35b6103b2610af1565b6040516103bf9190612fac565b60405180910390f35b6103e260048036038101906103dd9190612f26565b610af7565b6040516103ef9190612d78565b60405180910390f35b610400610ba0565b60405161040d9190612d78565b60405180910390f35b610430600480360381019061042b9190612fc7565b610ba6565b005b61044c60048036038101906104479190612e71565b610bc6565b6040516104599190612d78565b60405180910390f35b61047c600480360381019061047791906131c6565b610c3c565b005b610486610c57565b005b6104a2600480360381019061049d9190612e71565b610e9c565b6040516104af9190612edf565b60405180910390f35b6104c0610eae565b6040516104cd9190612d78565b60405180910390f35b6104f060048036038101906104eb919061320f565b610eb4565b005b61050c60048036038101906105079190612f66565b610f6a565b6040516105199190612d78565b60405180910390f35b61052a611024565b005b610534611038565b6040516105419190612d78565b60405180910390f35b610564600480360381019061055f91906132dd565b61103e565b005b61056e611050565b60405161057b9190612edf565b60405180910390f35b61058c61107a565b6040516105999190612d78565b60405180910390f35b6105bc60048036038101906105b791906133ab565b611080565b6040516105c99190612fac565b60405180910390f35b6105da611091565b6040516105e79190612e23565b60405180910390f35b6105f8611123565b6040516106059190613453565b60405180910390f35b610628600480360381019061062391906134ce565b611149565b6040516106359190612d44565b60405180910390f35b61064661121a565b6040516106539190612e23565b60405180910390f35b6106766004803603810190610671919061356e565b6112a8565b005b610692600480360381019061068d91906135ae565b6112be565b005b6106ae60048036038101906106a991906135fb565b61147a565b005b6106ca60048036038101906106c59190612f66565b61149f565b6040516106d79190612d78565b60405180910390f35b6106e86114fd565b6040516106f59190612d78565b60405180910390f35b61071860048036038101906107139190612e71565b611503565b6040516107259190612e23565b60405180910390f35b610736611562565b6040516107439190612edf565b60405180910390f35b610754611588565b6040516107619190612d78565b60405180910390f35b610784600480360381019061077f919061367e565b61158e565b6040516107919190612d44565b60405180910390f35b6107b460048036038101906107af9190612f66565b611622565b005b6107d060048036038101906107cb9190612f66565b6116a8565b6040516107dd9190612d78565b60405180910390f35b60007f780e9d63000000000000000000000000000000000000000000000000000000007bffffffffffffffffffffffffffffffffffffffffffffffffffffffff1916827bffffffffffffffffffffffffffffffffffffffffffffffffffffffff191614806108595750610858826116c0565b5b9050919050565b60135481565b606060008054610875906136ed565b80601f01602080910402602001604051908101604052809291908181526020018280546108a1906136ed565b80156108ee5780601f106108c3576101008083540402835291602001916108ee565b820191906000526020600020905b8154815290600101906020018083116108d157829003601f168201915b5050505050905090565b6000610903826117a2565b5061090d8261182a565b9050919050565b6109268282610921611867565b61186f565b5050565b6000600880549050905090565b60003073ffffffffffffffffffffffffffffffffffffffff166323bcf83e836040518263ffffffff1660e01b81526004016109729190612edf565b600060405180830381865afa15801561098f573d6000803e3d6000fd5b505050506040513d6000823e3d601f19601f820116820180604052508101906109b8919061378e565b805190602001209050919050565b600073ffffffffffffffffffffffffffffffffffffffff168273ffffffffffffffffffffffffffffffffffffffff1603610a385760006040517f64a0ae92000000000000000000000000000000000000000000000000000000008152600401610a2f9190612edf565b60405180910390fd5b6000610a4c8383610a47611867565b611881565b90508373ffffffffffffffffffffffffffffffffffffffff168173ffffffffffffffffffffffffffffffffffffffff1614610ac2578382826040517f64283d7b000000000000000000000000000000000000000000000000000000008152600401610ab9939291906137d7565b60405180910390fd5b50505050565b606081604051602001610adb9190613856565b6040516020818303038152906040529050919050565b600b5481565b6000610b0283610f6a565b8210610b475782826040517fa57d13dc000000000000000000000000000000000000000000000000000000008152600401610b3e929190613871565b60405180910390fd5b600660008473ffffffffffffffffffffffffffffffffffffffff1673ffffffffffffffffffffffffffffffffffffffff168152602001908152602001600020600083815260200190815260200160002054905092915050565b60105481565b610bc18383836040518060200160405280600081525061147a565b505050565b6000610bd061092a565b8210610c16576000826040517fa57d13dc000000000000000000000000000000000000000000000000000000008152600401610c0d929190613871565b60405180910390fd5b60088281548110610c2a57610c2961389a565b5b90600052602060002001549050919050565b610c4461199e565b80600c9081610c539190613a6b565b5050565b600e54421015610c9c576040517f08c379a0000000000000000000000000000000000000000000000000000000008152600401610c9390613baf565b60405180910390fd5b600f54421115610ce1576040517f08c379a0000000000000000000000000000000000000000000000000000000008152600401610cd890613c41565b60405180910390fd5b601660009054906101000a900473ffffffffffffffffffffffffffffffffffffffff1673ffffffffffffffffffffffffffffffffffffffff166323b872dd33601460009054906101000a900473ffffffffffffffffffffffffffffffffffffffff16601660009054906101000a900473ffffffffffffffffffffffffffffffffffffffff1673ffffffffffffffffffffffffffffffffffffffff1663313ce5676040518163ffffffff1660e01b8152600401602060405180830381865afa158015610db0573d6000803e3d6000fd5b505050506040513d601f19601f82011682018060405250810190610dd49190613c9a565b600a610de09190613e29565b601554610ded9190613e74565b6040518463ffffffff1660e01b8152600401610e0b93929190613eb6565b6020604051808303816000875af1158015610e2a573d6000803e3d6000fd5b505050506040513d601f19601f82011682018060405250810190610e4e9190613f02565b610e8d576040517f08c379a0000000000000000000000000000000000000000000000000000000008152600401610e8490613f7b565b60405180910390fd5b610e9933601354611a25565b50565b6000610ea7826117a2565b9050919050565b60115481565b610ebc61199e565b86600e8190555085600f8190555084601281905550836013819055508060158190555082601460006101000a81548173ffffffffffffffffffffffffffffffffffffffff021916908373ffffffffffffffffffffffffffffffffffffffff16021790555081601660006101000a81548173ffffffffffffffffffffffffffffffffffffffff021916908373ffffffffffffffffffffffffffffffffffffffff16021790555050505050505050565b60008073ffffffffffffffffffffffffffffffffffffffff168273ffffffffffffffffffffffffffffffffffffffff1603610fdd5760006040517f89c62b64000000000000000000000000000000000000000000000000000000008152600401610fd49190612edf565b60405180910390fd5b600360008373ffffffffffffffffffffffffffffffffffffffff1673ffffffffffffffffffffffffffffffffffffffff168152602001908152602001600020549050919050565b61102c61199e565b6110366000611b78565b565b600f5481565b61104661199e565b80600b8190555050565b6000600a60009054906101000a900473ffffffffffffffffffffffffffffffffffffffff16905090565b600e5481565b600081805190602001209050919050565b6060600180546110a0906136ed565b80601f01602080910402602001604051908101604052809291908181526020018280546110cc906136ed565b80156111195780601f106110ee57610100808354040283529160200191611119565b820191906000526020600020905b8154815290600101906020018083116110fc57829003601f168201915b5050505050905090565b601660009054906101000a900473ffffffffffffffffffffffffffffffffffffffff1681565b6000611210838380806020026020016040519081016040528093929190818152602001838360200280828437600081840152601f19601f82011690508083019250505050505050863073ffffffffffffffffffffffffffffffffffffffff16631da0b8fc886040518263ffffffff1660e01b81526004016111ca9190612edf565b602060405180830381865afa1580156111e7573d6000803e3d6000fd5b505050506040513d601f19601f8201168201806040525081019061120b9190613fb0565b611c3e565b9050949350505050565b600c8054611227906136ed565b80601f0160208091040260200160405190810160405280929190818152602001828054611253906136ed565b80156112a05780601f10611275576101008083540402835291602001916112a0565b820191906000526020600020905b81548152906001019060200180831161128357829003601f168201915b505050505081565b6112ba6112b3611867565b8383611c55565b5050565b3073ffffffffffffffffffffffffffffffffffffffff16639a99fcf3600b543385856040518563ffffffff1660e01b81526004016112ff9493929190614058565b602060405180830381865afa15801561131c573d6000803e3d6000fd5b505050506040513d601f19601f820116820180604052508101906113409190613f02565b61137f576040517f08c379a00000000000000000000000000000000000000000000000000000000081526004016113769061410a565b60405180910390fd5b600e544210156113c4576040517f08c379a00000000000000000000000000000000000000000000000000000000081526004016113bb90613baf565b60405180910390fd5b600f54421115611409576040517f08c379a000000000000000000000000000000000000000000000000000000000815260040161140090613c41565b60405180910390fd5b6010546011541061144f576040517f08c379a00000000000000000000000000000000000000000000000000000000081526004016114469061419c565b60405180910390fd5b60016011600082825461146291906141bc565b9250508190555061147533601354611a25565b505050565b6114858484846109c6565b611499611490611867565b85858585611dc4565b50505050565b6000806013549050600d60008473ffffffffffffffffffffffffffffffffffffffff1673ffffffffffffffffffffffffffffffffffffffff16815260200190815260200160002054816114f291906141f0565b905080915050919050565b60155481565b6060600061150f611f75565b9050600081511161152f576040518060200160405280600081525061155a565b8061153984612007565b60405160200161154a9291906142ac565b6040516020818303038152906040525b915050919050565b601460009054906101000a900473ffffffffffffffffffffffffffffffffffffffff1681565b60125481565b6000600560008473ffffffffffffffffffffffffffffffffffffffff1673ffffffffffffffffffffffffffffffffffffffff16815260200190815260200160002060008373ffffffffffffffffffffffffffffffffffffffff1673ffffffffffffffffffffffffffffffffffffffff16815260200190815260200160002060009054906101000a900460ff16905092915050565b61162a61199e565b600073ffffffffffffffffffffffffffffffffffffffff168173ffffffffffffffffffffffffffffffffffffffff160361169c5760006040517f1e4fbdf70000000000000000000000000000000000000000000000000000000081526004016116939190612edf565b60405180910390fd5b6116a581611b78565b50565b600d6020528060005260406000206000915090505481565b60007f80ac58cd000000000000000000000000000000000000000000000000000000007bffffffffffffffffffffffffffffffffffffffffffffffffffffffff1916827bffffffffffffffffffffffffffffffffffffffffffffffffffffffff1916148061178b57507f5b5e139f000000000000000000000000000000000000000000000000000000007bffffffffffffffffffffffffffffffffffffffffffffffffffffffff1916827bffffffffffffffffffffffffffffffffffffffffffffffffffffffff1916145b8061179b575061179a826120d5565b5b9050919050565b6000806117ae8361213f565b9050600073ffffffffffffffffffffffffffffffffffffffff168173ffffffffffffffffffffffffffffffffffffffff160361182157826040517f7e2732890000000000000000000000000000000000000000000000000000000081526004016118189190612d78565b60405180910390fd5b80915050919050565b60006004600083815260200190815260200160002060009054906101000a900473ffffffffffffffffffffffffffffffffffffffff169050919050565b600033905090565b61187c838383600161217c565b505050565b60008061188f858585612341565b9050600073ffffffffffffffffffffffffffffffffffffffff168173ffffffffffffffffffffffffffffffffffffffff16036118d3576118ce8461255b565b611912565b8473ffffffffffffffffffffffffffffffffffffffff168173ffffffffffffffffffffffffffffffffffffffff16146119115761191081856125a4565b5b5b600073ffffffffffffffffffffffffffffffffffffffff168573ffffffffffffffffffffffffffffffffffffffff16036119545761194f8461268f565b611993565b8473ffffffffffffffffffffffffffffffffffffffff168173ffffffffffffffffffffffffffffffffffffffff1614611992576119918585612760565b5b5b809150509392505050565b6119a6611867565b73ffffffffffffffffffffffffffffffffffffffff166119c4611050565b73ffffffffffffffffffffffffffffffffffffffff1614611a23576119e7611867565b6040517f118cdaa7000000000000000000000000000000000000000000000000000000008152600401611a1a9190612edf565b60405180910390fd5b565b600080611a3061092a565b90506012548110611a76576040517f08c379a0000000000000000000000000000000000000000000000000000000008152600401611a6d90614327565b60405180910390fd5b82600d60008673ffffffffffffffffffffffffffffffffffffffff1673ffffffffffffffffffffffffffffffffffffffff1681526020019081526020016000205410611af7576040517f08c379a0000000000000000000000000000000000000000000000000000000008152600401611aee90614393565b60405180910390fd5b600d60008573ffffffffffffffffffffffffffffffffffffffff1673ffffffffffffffffffffffffffffffffffffffff1681526020019081526020016000206000815480929190611b47906143b3565b9190505550611b6284600183611b5d91906141bc565b6127eb565b600181611b6f91906141bc565b91505092915050565b6000600a60009054906101000a900473ffffffffffffffffffffffffffffffffffffffff16905081600a60006101000a81548173ffffffffffffffffffffffffffffffffffffffff021916908373ffffffffffffffffffffffffffffffffffffffff1602179055508173ffffffffffffffffffffffffffffffffffffffff168173ffffffffffffffffffffffffffffffffffffffff167f8be0079c531659141344cd1fd0a4f28419497f9722a3daafe3b4186f6b6457e060405160405180910390a35050565b600082611c4b8584612809565b1490509392505050565b600073ffffffffffffffffffffffffffffffffffffffff168273ffffffffffffffffffffffffffffffffffffffff1603611cc657816040517f5b08ba18000000000000000000000000000000000000000000000000000000008152600401611cbd9190612edf565b60405180910390fd5b80600560008573ffffffffffffffffffffffffffffffffffffffff1673ffffffffffffffffffffffffffffffffffffffff16815260200190815260200160002060008473ffffffffffffffffffffffffffffffffffffffff1673ffffffffffffffffffffffffffffffffffffffff16815260200190815260200160002060006101000a81548160ff0219169083151502179055508173ffffffffffffffffffffffffffffffffffffffff168373ffffffffffffffffffffffffffffffffffffffff167f17307eab39ab6107e8899845ad3d59bd9653f200f220920489ca2b5937696c3183604051611db79190612d44565b60405180910390a3505050565b60008373ffffffffffffffffffffffffffffffffffffffff163b1115611f6e578273ffffffffffffffffffffffffffffffffffffffff1663150b7a02868685856040518563ffffffff1660e01b8152600401611e2394939291906143fb565b6020604051808303816000875af1925050508015611e5f57506040513d601f19601f82011682018060405250810190611e5c919061445c565b60015b611ee3573d8060008114611e8f576040519150601f19603f3d011682016040523d82523d6000602084013e611e94565b606091505b506000815103611edb57836040517f64a0ae92000000000000000000000000000000000000000000000000000000008152600401611ed29190612edf565b60405180910390fd5b805181602001fd5b63150b7a0260e01b7bffffffffffffffffffffffffffffffffffffffffffffffffffffffff1916817bffffffffffffffffffffffffffffffffffffffffffffffffffffffff191614611f6c57836040517f64a0ae92000000000000000000000000000000000000000000000000000000008152600401611f639190612edf565b60405180910390fd5b505b5050505050565b6060600c8054611f84906136ed565b80601f0160208091040260200160405190810160405280929190818152602001828054611fb0906136ed565b8015611ffd5780601f10611fd257610100808354040283529160200191611ffd565b820191906000526020600020905b815481529060010190602001808311611fe057829003601f168201915b5050505050905090565b60606000600161201684612859565b01905060008167ffffffffffffffff8111156120355761203461309b565b5b6040519080825280601f01601f1916602001820160405280156120675781602001600182028036833780820191505090505b509050600082602001820190505b6001156120ca578080600190039150507f3031323334353637383961626364656600000000000000000000000000000000600a86061a8153600a85816120be576120bd614489565b5b04945060008503612075575b819350505050919050565b60007f01ffc9a7000000000000000000000000000000000000000000000000000000007bffffffffffffffffffffffffffffffffffffffffffffffffffffffff1916827bffffffffffffffffffffffffffffffffffffffffffffffffffffffff1916149050919050565b60006002600083815260200190815260200160002060009054906101000a900473ffffffffffffffffffffffffffffffffffffffff169050919050565b80806121b55750600073ffffffffffffffffffffffffffffffffffffffff168273ffffffffffffffffffffffffffffffffffffffff1614155b156122e95760006121c5846117a2565b9050600073ffffffffffffffffffffffffffffffffffffffff168373ffffffffffffffffffffffffffffffffffffffff161415801561223057508273ffffffffffffffffffffffffffffffffffffffff168173ffffffffffffffffffffffffffffffffffffffff1614155b80156122435750612241818461158e565b155b1561228557826040517fa9fbf51f00000000000000000000000000000000000000000000000000000000815260040161227c9190612edf565b60405180910390fd5b81156122e757838573ffffffffffffffffffffffffffffffffffffffff168273ffffffffffffffffffffffffffffffffffffffff167f8c5be1e5ebec7d5bd14f71427d1e84f3dd0314c0f7b2291e5b200ac8c7c3b92560405160405180910390a45b505b836004600085815260200190815260200160002060006101000a81548173ffffffffffffffffffffffffffffffffffffffff021916908373ffffffffffffffffffffffffffffffffffffffff16021790555050505050565b60008061234d8461213f565b9050600073ffffffffffffffffffffffffffffffffffffffff168373ffffffffffffffffffffffffffffffffffffffff161461238f5761238e8184866129ac565b5b600073ffffffffffffffffffffffffffffffffffffffff168173ffffffffffffffffffffffffffffffffffffffff1614612420576123d160008560008061217c565b6001600360008373ffffffffffffffffffffffffffffffffffffffff1673ffffffffffffffffffffffffffffffffffffffff168152602001908152602001600020600082825403925050819055505b600073ffffffffffffffffffffffffffffffffffffffff168573ffffffffffffffffffffffffffffffffffffffff16146124a3576001600360008773ffffffffffffffffffffffffffffffffffffffff1673ffffffffffffffffffffffffffffffffffffffff168152602001908152602001600020600082825401925050819055505b846002600086815260200190815260200160002060006101000a81548173ffffffffffffffffffffffffffffffffffffffff021916908373ffffffffffffffffffffffffffffffffffffffff160217905550838573ffffffffffffffffffffffffffffffffffffffff168273ffffffffffffffffffffffffffffffffffffffff167fddf252ad1be2c89b69c2b068fc378daa952ba7f163c4a11628f55a4df523b3ef60405160405180910390a4809150509392505050565b6008805490506009600083815260200190815260200160002081905550600881908060018154018082558091505060019003906000526020600020016000909190919091505550565b60006125af83610f6a565b90506000600760008481526020019081526020016000205490506000600660008673ffffffffffffffffffffffffffffffffffffffff1673ffffffffffffffffffffffffffffffffffffffff168152602001908152602001600020905082821461265b5760008160008581526020019081526020016000205490508082600085815260200190815260200160002081905550826007600083815260200190815260200160002081905550505b6007600085815260200190815260200160002060009055806000848152602001908152602001600020600090555050505050565b600060016008805490506126a391906141f0565b90506000600960008481526020019081526020016000205490506000600883815481106126d3576126d261389a565b5b9060005260206000200154905080600883815481106126f5576126f461389a565b5b906000526020600020018190555081600960008381526020019081526020016000208190555060096000858152602001908152602001600020600090556008805480612744576127436144b8565b5b6001900381819060005260206000200160009055905550505050565b6000600161276d84610f6a565b61277791906141f0565b905081600660008573ffffffffffffffffffffffffffffffffffffffff1673ffffffffffffffffffffffffffffffffffffffff168152602001908152602001600020600083815260200190815260200160002081905550806007600084815260200190815260200160002081905550505050565b612805828260405180602001604052806000815250612a70565b5050565b60008082905060005b845181101561284e5761283f828683815181106128325761283161389a565b5b6020026020010151612a94565b91508080600101915050612812565b508091505092915050565b600080600090507a184f03e93ff9f4daa797ed6e38ed64bf6a1f01000000000000000083106128b7577a184f03e93ff9f4daa797ed6e38ed64bf6a1f01000000000000000083816128ad576128ac614489565b5b0492506040810190505b6d04ee2d6d415b85acef810000000083106128f4576d04ee2d6d415b85acef810000000083816128ea576128e9614489565b5b0492506020810190505b662386f26fc10000831061292357662386f26fc10000838161291957612918614489565b5b0492506010810190505b6305f5e100831061294c576305f5e100838161294257612941614489565b5b0492506008810190505b612710831061297157612710838161296757612966614489565b5b0492506004810190505b60648310612994576064838161298a57612989614489565b5b0492506002810190505b600a83106129a3576001810190505b80915050919050565b6129b7838383612abf565b612a6b57600073ffffffffffffffffffffffffffffffffffffffff168373ffffffffffffffffffffffffffffffffffffffff1603612a2c57806040517f7e273289000000000000000000000000000000000000000000000000000000008152600401612a239190612d78565b60405180910390fd5b81816040517f177e802f000000000000000000000000000000000000000000000000000000008152600401612a62929190613871565b60405180910390fd5b505050565b612a7a8383612b80565b612a8f612a85611867565b6000858585611dc4565b505050565b6000818310612aac57612aa78284612c79565b612ab7565b612ab68383612c79565b5b905092915050565b60008073ffffffffffffffffffffffffffffffffffffffff168373ffffffffffffffffffffffffffffffffffffffff1614158015612b7757508273ffffffffffffffffffffffffffffffffffffffff168473ffffffffffffffffffffffffffffffffffffffff161480612b385750612b37848461158e565b5b80612b7657508273ffffffffffffffffffffffffffffffffffffffff16612b5e8361182a565b73ffffffffffffffffffffffffffffffffffffffff16145b5b90509392505050565b600073ffffffffffffffffffffffffffffffffffffffff168273ffffffffffffffffffffffffffffffffffffffff1603612bf25760006040517f64a0ae92000000000000000000000000000000000000000000000000000000008152600401612be99190612edf565b60405180910390fd5b6000612c0083836000611881565b9050600073ffffffffffffffffffffffffffffffffffffffff168173ffffffffffffffffffffffffffffffffffffffff1614612c745760006040517f73c6ac6e000000000000000000000000000000000000000000000000000000008152600401612c6b9190612edf565b60405180910390fd5b505050565b600082600052816020526040600020905092915050565b6000604051905090565b600080fd5b600080fd5b60007fffffffff0000000000000000000000000000000000000000000000000000000082169050919050565b612cd981612ca4565b8114612ce457600080fd5b50565b600081359050612cf681612cd0565b92915050565b600060208284031215612d1257612d11612c9a565b5b6000612d2084828501612ce7565b91505092915050565b60008115159050919050565b612d3e81612d29565b82525050565b6000602082019050612d596000830184612d35565b92915050565b6000819050919050565b612d7281612d5f565b82525050565b6000602082019050612d8d6000830184612d69565b92915050565b600081519050919050565b600082825260208201905092915050565b60005b83811015612dcd578082015181840152602081019050612db2565b60008484015250505050565b6000601f19601f8301169050919050565b6000612df582612d93565b612dff8185612d9e565b9350612e0f818560208601612daf565b612e1881612dd9565b840191505092915050565b60006020820190508181036000830152612e3d8184612dea565b905092915050565b612e4e81612d5f565b8114612e5957600080fd5b50565b600081359050612e6b81612e45565b92915050565b600060208284031215612e8757612e86612c9a565b5b6000612e9584828501612e5c565b91505092915050565b600073ffffffffffffffffffffffffffffffffffffffff82169050919050565b6000612ec982612e9e565b9050919050565b612ed981612ebe565b82525050565b6000602082019050612ef46000830184612ed0565b92915050565b612f0381612ebe565b8114612f0e57600080fd5b50565b600081359050612f2081612efa565b92915050565b60008060408385031215612f3d57612f3c612c9a565b5b6000612f4b85828601612f11565b9250506020612f5c85828601612e5c565b9150509250929050565b600060208284031215612f7c57612f7b612c9a565b5b6000612f8a84828501612f11565b91505092915050565b6000819050919050565b612fa681612f93565b82525050565b6000602082019050612fc16000830184612f9d565b92915050565b600080600060608486031215612fe057612fdf612c9a565b5b6000612fee86828701612f11565b9350506020612fff86828701612f11565b925050604061301086828701612e5c565b9150509250925092565b600081519050919050565b600082825260208201905092915050565b60006130418261301a565b61304b8185613025565b935061305b818560208601612daf565b61306481612dd9565b840191505092915050565b600060208201905081810360008301526130898184613036565b905092915050565b600080fd5b600080fd5b7f4e487b7100000000000000000000000000000000000000000000000000000000600052604160045260246000fd5b6130d382612dd9565b810181811067ffffffffffffffff821117156130f2576130f161309b565b5b80604052505050565b6000613105612c90565b905061311182826130ca565b919050565b600067ffffffffffffffff8211156131315761313061309b565b5b61313a82612dd9565b9050602081019050919050565b82818337600083830152505050565b600061316961316484613116565b6130fb565b90508281526020810184848401111561318557613184613096565b5b613190848285613147565b509392505050565b600082601f8301126131ad576131ac613091565b5b81356131bd848260208601613156565b91505092915050565b6000602082840312156131dc576131db612c9a565b5b600082013567ffffffffffffffff8111156131fa576131f9612c9f565b5b61320684828501613198565b91505092915050565b600080600080600080600060e0888a03121561322e5761322d612c9a565b5b600061323c8a828b01612e5c565b975050602061324d8a828b01612e5c565b965050604061325e8a828b01612e5c565b955050606061326f8a828b01612e5c565b94505060806132808a828b01612f11565b93505060a06132918a828b01612f11565b92505060c06132a28a828b01612e5c565b91505092959891949750929550565b6132ba81612f93565b81146132c557600080fd5b50565b6000813590506132d7816132b1565b92915050565b6000602082840312156132f3576132f2612c9a565b5b6000613301848285016132c8565b91505092915050565b600067ffffffffffffffff8211156133255761332461309b565b5b61332e82612dd9565b9050602081019050919050565b600061334e6133498461330a565b6130fb565b90508281526020810184848401111561336a57613369613096565b5b613375848285613147565b509392505050565b600082601f83011261339257613391613091565b5b81356133a284826020860161333b565b91505092915050565b6000602082840312156133c1576133c0612c9a565b5b600082013567ffffffffffffffff8111156133df576133de612c9f565b5b6133eb8482850161337d565b91505092915050565b6000819050919050565b600061341961341461340f84612e9e565b6133f4565b612e9e565b9050919050565b600061342b826133fe565b9050919050565b600061343d82613420565b9050919050565b61344d81613432565b82525050565b60006020820190506134686000830184613444565b92915050565b600080fd5b600080fd5b60008083601f84011261348e5761348d613091565b5b8235905067ffffffffffffffff8111156134ab576134aa61346e565b5b6020830191508360208202830111156134c7576134c6613473565b5b9250929050565b600080600080606085870312156134e8576134e7612c9a565b5b60006134f6878288016132c8565b945050602061350787828801612f11565b935050604085013567ffffffffffffffff81111561352857613527612c9f565b5b61353487828801613478565b925092505092959194509250565b61354b81612d29565b811461355657600080fd5b50565b60008135905061356881613542565b92915050565b6000806040838503121561358557613584612c9a565b5b600061359385828601612f11565b92505060206135a485828601613559565b9150509250929050565b600080602083850312156135c5576135c4612c9a565b5b600083013567ffffffffffffffff8111156135e3576135e2612c9f565b5b6135ef85828601613478565b92509250509250929050565b6000806000806080858703121561361557613614612c9a565b5b600061362387828801612f11565b945050602061363487828801612f11565b935050604061364587828801612e5c565b925050606085013567ffffffffffffffff81111561366657613665612c9f565b5b6136728782880161337d565b91505092959194509250565b6000806040838503121561369557613694612c9a565b5b60006136a385828601612f11565b92505060206136b485828601612f11565b9150509250929050565b7f4e487b7100000000000000000000000000000000000000000000000000000000600052602260045260246000fd5b6000600282049050600182168061370557607f821691505b602082108103613718576137176136be565b5b50919050565b600061373161372c8461330a565b6130fb565b90508281526020810184848401111561374d5761374c613096565b5b613758848285612daf565b509392505050565b600082601f83011261377557613774613091565b5b815161378584826020860161371e565b91505092915050565b6000602082840312156137a4576137a3612c9a565b5b600082015167ffffffffffffffff8111156137c2576137c1612c9f565b5b6137ce84828501613760565b91505092915050565b60006060820190506137ec6000830186612ed0565b6137f96020830185612d69565b6138066040830184612ed0565b949350505050565b60008160601b9050919050565b60006138268261380e565b9050919050565b60006138388261381b565b9050919050565b61385061384b82612ebe565b61382d565b82525050565b6000613862828461383f565b60148201915081905092915050565b60006040820190506138866000830185612ed0565b6138936020830184612d69565b9392505050565b7f4e487b7100000000000000000000000000000000000000000000000000000000600052603260045260246000fd5b60008190508160005260206000209050919050565b60006020601f8301049050919050565b600082821b905092915050565b60006008830261392b7fffffffffffffffffffffffffffffffffffffffffffffffffffffffffffffffff826138ee565b61393586836138ee565b95508019841693508086168417925050509392505050565b600061396861396361395e84612d5f565b6133f4565b612d5f565b9050919050565b6000819050919050565b6139828361394d565b61399661398e8261396f565b8484546138fb565b825550505050565b600090565b6139ab61399e565b6139b6818484613979565b505050565b5b818110156139da576139cf6000826139a3565b6001810190506139bc565b5050565b601f821115613a1f576139f0816138c9565b6139f9846138de565b81016020851015613a08578190505b613a1c613a14856138de565b8301826139bb565b50505b505050565b600082821c905092915050565b6000613a4260001984600802613a24565b1980831691505092915050565b6000613a5b8383613a31565b9150826002028217905092915050565b613a7482612d93565b67ffffffffffffffff811115613a8d57613a8c61309b565b5b613a9782546136ed565b613aa28282856139de565b600060209050601f831160018114613ad55760008415613ac3578287015190505b613acd8582613a4f565b865550613b35565b601f198416613ae3866138c9565b60005b82811015613b0b57848901518255600182019150602085019450602081019050613ae6565b86831015613b285784890151613b24601f891682613a31565b8355505b6001600288020188555050505b505050505050565b7f546865207075626c6963206d696e74207374616765206861736e27742073746160008201527f72746564207965742e0000000000000000000000000000000000000000000000602082015250565b6000613b99602983612d9e565b9150613ba482613b3d565b604082019050919050565b60006020820190508181036000830152613bc881613b8c565b9050919050565b7f546865207075626c6963206d696e742073746167652068617320656e6465642060008201527f7965742e00000000000000000000000000000000000000000000000000000000602082015250565b6000613c2b602483612d9e565b9150613c3682613bcf565b604082019050919050565b60006020820190508181036000830152613c5a81613c1e565b9050919050565b600060ff82169050919050565b613c7781613c61565b8114613c8257600080fd5b50565b600081519050613c9481613c6e565b92915050565b600060208284031215613cb057613caf612c9a565b5b6000613cbe84828501613c85565b91505092915050565b7f4e487b7100000000000000000000000000000000000000000000000000000000600052601160045260246000fd5b60008160011c9050919050565b6000808291508390505b6001851115613d4d57808604811115613d2957613d28613cc7565b5b6001851615613d385780820291505b8081029050613d4685613cf6565b9450613d0d565b94509492505050565b600082613d665760019050613e22565b81613d745760009050613e22565b8160018114613d8a5760028114613d9457613dc3565b6001915050613e22565b60ff841115613da657613da5613cc7565b5b8360020a915084821115613dbd57613dbc613cc7565b5b50613e22565b5060208310610133831016604e8410600b8410161715613df85782820a905083811115613df357613df2613cc7565b5b613e22565b613e058484846001613d03565b92509050818404811115613e1c57613e1b613cc7565b5b81810290505b9392505050565b6000613e3482612d5f565b9150613e3f83613c61565b9250613e6c7fffffffffffffffffffffffffffffffffffffffffffffffffffffffffffffffff8484613d56565b905092915050565b6000613e7f82612d5f565b9150613e8a83612d5f565b9250828202613e9881612d5f565b91508282048414831517613eaf57613eae613cc7565b5b5092915050565b6000606082019050613ecb6000830186612ed0565b613ed86020830185612ed0565b613ee56040830184612d69565b949350505050565b600081519050613efc81613542565b92915050565b600060208284031215613f1857613f17612c9a565b5b6000613f2684828501613eed565b91505092915050565b7f5061796d656e74206661696c65642e0000000000000000000000000000000000600082015250565b6000613f65600f83612d9e565b9150613f7082613f2f565b602082019050919050565b60006020820190508181036000830152613f9481613f58565b9050919050565b600081519050613faa816132b1565b92915050565b600060208284031215613fc657613fc5612c9a565b5b6000613fd484828501613f9b565b91505092915050565b600082825260208201905092915050565b600080fd5b82818337505050565b60006140088385613fdd565b93507f07ffffffffffffffffffffffffffffffffffffffffffffffffffffffffffffff83111561403b5761403a613fee565b5b60208302925061404c838584613ff3565b82840190509392505050565b600060608201905061406d6000830187612f9d565b61407a6020830186612ed0565b818103604083015261408d818486613ffc565b905095945050505050565b7f596f7572206163636f756e74206973206e6f7420696e2074686520776869746560008201527f206c6973742e0000000000000000000000000000000000000000000000000000602082015250565b60006140f4602683612d9e565b91506140ff82614098565b604082019050919050565b60006020820190508181036000830152614123816140e7565b9050919050565b7f546865206e756d626572206f66204e46547320796f75206d696e74206578636560008201527f65647320746865206c696d69742e000000000000000000000000000000000000602082015250565b6000614186602e83612d9e565b91506141918261412a565b604082019050919050565b600060208201905081810360008301526141b581614179565b9050919050565b60006141c782612d5f565b91506141d283612d5f565b92508282019050808211156141ea576141e9613cc7565b5b92915050565b60006141fb82612d5f565b915061420683612d5f565b925082820390508181111561421e5761421d613cc7565b5b92915050565b600081905092915050565b600061423a82612d93565b6142448185614224565b9350614254818560208601612daf565b80840191505092915050565b7f2e6a736f6e000000000000000000000000000000000000000000000000000000600082015250565b6000614296600583614224565b91506142a182614260565b600582019050919050565b60006142b8828561422f565b91506142c4828461422f565b91506142cf82614289565b91508190509392505050565b7f416c6c204e4654732068617665206265656e206d696e7465642e000000000000600082015250565b6000614311601a83612d9e565b915061431c826142db565b602082019050919050565b6000602082019050818103600083015261434081614304565b9050919050565b7f596f752068617665206e6f206d6f7265206d696e74206368616e63652e000000600082015250565b600061437d601d83612d9e565b915061438882614347565b602082019050919050565b600060208201905081810360008301526143ac81614370565b9050919050565b60006143be82612d5f565b91507fffffffffffffffffffffffffffffffffffffffffffffffffffffffffffffffff82036143f0576143ef613cc7565b5b600182019050919050565b60006080820190506144106000830187612ed0565b61441d6020830186612ed0565b61442a6040830185612d69565b818103606083015261443c8184613036565b905095945050505050565b60008151905061445681612cd0565b92915050565b60006020828403121561447257614471612c9a565b5b600061448084828501614447565b91505092915050565b7f4e487b7100000000000000000000000000000000000000000000000000000000600052601260045260246000fd5b7f4e487b7100000000000000000000000000000000000000000000000000000000600052603160045260246000fdfea26469706673582212209501167efeeac9a9919ec3e8aad965e12bc720b233893d891f5e20493e71a59264736f6c6343000816003368747470733a2f2f6e66742d67702e76657263656c2e6170702f6e66742f6d657461646174612f",
  "linkReferences": {},
  "deployedLinkReferences": {}
}